:1000000000800020BD010000D93F0000913F0000AA
:10001000913F0000913F0000913F0000913F0000A0
:10002000913F0000913F0000913F0000D93F000048
:10003000D93F0000913F0000D93F0000813F000000
:10004000D93F0000D93F0000D93F0000D93F000050
:10005000D93F0000D93F0000D93F0000D93F000040
:10006000D93F0000D93F0000D93F0000D93F000030
:10007000D93F0000D93F0000D93F0000D93F000020
:10008000D93F0000D93F0000D93F0000D93F000010
:10009000D93F0000D93F0000D93F0000D93F000000
:1000A000B53A0000C13A0000D93F0000D93F000036
:1000B000D93F0000D93F0000D93F0000D93F0000E0
:1000C000D93F0000D93F0000D93F0000D93F0000D0
:1000D000D93F0000D93F0000D93F0000D93F0000C0
:1000E000D93F0000D93F0000D93F0000D93F0000B0
:1000F000D93F0000C55F0000D93F0000096700003C
:10010000D93F0000796C0000D93F0000D93F0000C2
:10011000D93F0000D93F0000D93F0000D93F00007F
:10012000D93F0000D93F0000D93F0000D93F00006F
:10013000D93F0000D93F0000D93F0000D93F00005F
:10014000D93F0000D93F0000D93F0000D93F00004F
:10015000C1550000D5550000E9550000FD550000CF
:10016000D93F000009460000D93F0000D93F0000F8
:10017000D93F0000D93F0000D93F0000D93F00001F
:10018000D93F0000D93F0000D93F0000D93F00000F
:10019000D93F0000D93F0000D93F0000D93F0000FF
:1001A000D93F0000D93F0000D93F0000D93F0000EF
:1001B000D93F0000D93F000011540000564B4CF2CB
:1001C000205210B51A804DF628121A8000BF00BFC9
:1001D00003F006FF514B4FF010621A60504A9A60CC
:1001E000504ADA60504A136813F4807304D14F49BF
:1001F0000B604FF4A85313604D4B1A78110703D5C9
:100200001A7842F008021A704A4B4B492A221A7097
:100210004A4A4B4B8B4204D252F8040F43F8040B6A
:10022000F8E7484B484900228B4202D243F8042B9E
:10023000FAE74649464A002352F8230041F82300D2
:1002400001336F2BF8D1434B434A802103F8011B44
:100250009342FBD1414B3D4A1A60414B8A221A70AE
:10026000A3F5805324225A70A0221A709A7992071B
:10027000FCD59A79D406FCD43A4A937903F00C035E
:10028000082B384BF9D103221A7140225A719A79FE
:100290009006FCD5334A9179324B4906FBD5324A58
:1002A000324911600221516020221A709A7902F0BD
:1002B0000C020C2AFAD12E4B2E4A1A602E4B2F4AD2
:1002C0001A6000225A60072243F8042C2C4AC3F813
:1002D0000C2D62B604F070F8144B1B68DA0705D5D4
:1002E000284803F0DBFF284B284A1A60284B1B786C
:1002F0005B0609D5244C254B22689A4204D121483B
:1003000003F0CCFF0023236007F004FF03F06EFE30
:1003100005F0B2FAFEE700BF0E2005403080044031
:10032000823F04000100002B10D0034014D0034092
:1003300002D0074000E00740FCBBFF1F7CA200008A
:1003400020AFFF1FFCBBFF1F28C6FF1F00AAFF1F17
:100350000000000000E400E05FE400E008ED00E0E1
:100360000050064000400640448004400000030165
:1003700004800440C010050014E000E0FF76010096
:1003800000002020EAEB9F591CE00340A5C3945ACB
:1003900000F00740FFFFFFFFFFFFFFFFFFFFFFFF32
:1003A000FFFFFFFFFFFFFFFFFFFFFFFFFFFFFFFF5D
:1003B000FFFFFFFFFFFFFFFFFFFFFFFFFFFFFFFF4D
:1003C000FFFFFFFFFFFFFFFFFFFFFFFFFFFFFFFF3D
:1003D000FFFFFFFFFFFFFFFFFFFFFFFFFFFFFFFF2D
:1003E000FFFFFFFFFFFFFFFFFFFFFFFFFFFFFFFF1D
:1003F000FFFFFFFFFFFFFFFFFFFFFFFFFFFFFFFF0D
:10040000FFFFFFFFFFFFFFFFFFFFFFFFDEF9FFFF23
:1004100010B5054C237833B9044B13B10448AFF33E
:1004200000800123237010BDFCBBFF1F00000000F3
:1004300080A20000084B10B51BB108490848AFF373
:1004400000800848036803B910BD074B002BFBD0A0
:10045000BDE81040184700BF0000000000BCFF1FAF
:1004600080A20000FCBBFF1F00000000F0B50446A6
:100470004068036883B01B689847684601F06EFCCB
:10048000636800989A68596803F050FB009BA08944
:100490001B88638183421DD9A27B94F90F50871872
:1004A000A5F10106B6FA86F6BB424FEA5616194682
:1004B0002CD9012001279D1AA381E0732772258280
:1004C000891A994217D8013615D0684601F052FCB6
:1004D00003B0F0BDF9D2A27B94F90F60014601365A
:1004E00010444FF0FF3618BF0026984213D2194629
:1004F0004FF0FF30DEE71A440121E0732282A3812E
:100500002172684601F036FC03B0F0BD012D05D024
:1005100001460120D4E74FF0FF30D1E72846C9E774
:100520002DE9F04104464068036882B01B68984793
:10053000684601F013FC636800989A68596803F0F4
:10054000F5FA009A94F831301288A2840BB994F825
:100550003330D4F83480013BDBB284F8313028F8F2
:10056000132094F8323094F8336094F82D70B3422D
:100570003CBF013384F83230002F00F0988094F8AB
:10058000320094F831C000F1FF3E00225FFA8EFE87
:10059000154605E038F811300132BA421D4411D039
:1005A000D3B2834228BF73466344DBB259B2B1422F
:1005B000A4BF9B1B59B20028ECD101320346BA42BA
:1005C0001D44EDD194F8393095FBF7F5ADB20BB978
:1005D00094F83B30E66B013BDBB284F8393026F807
:1005E000135094F83A1094F83B70B94203D2013199
:1005F000C9B284F83A1094F83900002908BF0138CC
:10060000C0B245B2AF42DABFC31B5BB22B46002972
:1006100045D01BB236F81330B4F926209A422ADBB3
:10062000B4F92830B4F92AE0AF42DABFC21B52B2A3
:100630002A46F1B112B236F8122093420DDDAF42D4
:10064000DCBFC01B45B261B336F8152011B20B46B2
:1006500072440120E28421852072CEF580626846D2
:100660009B02B3FBF2F3236201F084FB02B0BDE80E
:10067000F0810A46E1E7AF42DABFC31B5BB22B460B
:1006800091B11BB236F8132013B2B4F92AE0E38417
:10069000CEEB02031BB2012223852272C4E70B4674
:1006A000BAE70B460A46D3E70A460B46EDE73D4656
:1006B00088E700BF8173704740897047008A7047A0
:1006C0002DE9F8430446878B236A6589C08BB4F80B
:1006D0000C80AB4238BF2B46C01B1E4607F0A8FA61
:1006E000002323728146B04594BFC5EB0800C5EBDB
:1006F000060007F099FA0446C5EB080007F098FADF
:100700000146204607F09CFB494607F0E5FA0446FF
:10071000384607F08DFA0146204607F0D5F907F074
:10072000C7FC80B2BDE8F8832DE9F843036A458928
:100730000769AB4238BF2B46394604464069B4F8D6
:100740000C801E4607F0BEF9002323728146B04597
:1007500094BFC5EB0800C5EB060007F065FA044638
:10076000C5EB080007F064FA0146204607F068FB75
:10077000494607F0B1FA394607F0A6F9BDE8F88313
:10078000016170474161704781837047C183704741
:10079000F8B5044601F0D4FA40F2FF311B4AA181BA
:1007A00022614FF07E571A4B67614FF4004047F6C5
:1007B000FF714FF6FF720025102620836183E283CC
:1007C0003221012223603C270623282020856185D1
:1007D00084F82C2084F82D30E7846581A583256278
:1007E000A58484F8305084F83360202005F04EF85A
:1007F0000346606384F8385084F83B601D802020F5
:1008000005F044F8E06305802046F8BD000080BF95
:10081000148C000080F82D10704700BF4185704790
:1008200010B5044604F0B6FE204610BD002310B4F7
:10083000104C4172026104600372C36041B11946F9
:1008400000E0026942F82310427A01339A42F8DC50
:10085000094B1A680AB90AE01A465369002BFBD102
:100860005061002343618380C38010BC70471860CF
:10087000F7E700BF2C8C0000D8C3FF1FF0B5814CF8
:10088000814A21688148824E83B013783BB1037856
:100890009B0704D0236835685B1B182B04D823689A
:1008A0005B1AB3F57A7FF0D97A4B7B4D0026012194
:1008B0000D205E8103F00AFD102004F0E5FF0F21FA
:1008C000074601F017FA3946744801F02FFA102054
:1008D00004F0DAFF1021074601F00CFA394670489F
:1008E00001F024FA102004F0CFFF1121074601F097
:1008F00001FA39466B4801F019FA102004F0C4FFE0
:100900001421074601F0F6F93946674801F00EFA5E
:10091000102004F0B9FF1521074601F0EBF9394624
:10092000624801F003FA00215C48FFF729FF4FF00D
:100930007E515A48FFF726FF31465848FFF724FFFB
:100940000B215648FFF722FF0A215448FFF766FFA4
:100950000A215248FFF75EFF01215148FFF714FFBB
:1009600080214F48FFF712FF0A214D48FFF756FF3D
:100970000A214B48FFF74EFF01214A48FFF704FFC9
:100980000F214848FFF702FF0A214648FFF746FFBC
:100990000A214448FFF73EFF31464348FFF7F4FE83
:1009A00040F2FF314048FFF7F1FE00213E48FFF7DB
:1009B000E7FE3F493C48FFF7E5FE0A213A48FFF7CA
:1009C0002DFF0A213848FFF725FF23680193019B7B
:1009D000384A3949394803F5FA634FF080440B60CF
:1009E0001460232104F022FC284601F001FB67215A
:1009F000284601F0CFFB28465522202101F0CCFAF1
:100A000038B1EA8842F0040292B22421284601F06B
:100A1000C3FAEA88204822F01002242101F0BCFA2F
:100A2000012211461C4801F07BFB0D211A4801F000
:100A300063FB2349234A244B24484FF080440C6035
:100A4000002414621C6200F0BBFDC0211F4800F0AE
:100A500063FDA0211D4800F05FFD01211B4800F04F
:100A6000A5FE1A4800F0AEFE4FF4FA6003F056FC03
:100A70002146164800F09AFE144800F0A3FE03B089
:100A8000F0BD00BFD8C2FF1FBCC3FF1FD4C3FF1FF0
:100A900020C6FF1F0CBDFF1F00BDFF1F5CBDFF1F59
:100AA0009CBDFF1F60BEFF1FACBEFF1F18BCFF1F19
:100AB0000000DC4388E100E038BCFF1F0082FF1F1C
:100AC00008E100E0DCBDFF1FBCBCFF1F18BDFF1F1D
:100AD0002DE9F04F8B4F8C4E8C4DDFF8A8A28C4C3B
:100AE000DFF8A482002283B011463846FFF79EFE4D
:100AF000002211464FF480493046C7F800A0C7F8DD
:100B00002090FFF793FE05F1180201212846C6F850
:100B100000A0C6F82090FFF789FE7E4B2B600021D5
:100B200047F6FF734FF4004E012004F11802EB83E7
:100B3000A5F820E00B46607222612172E160C4F8E2
:100B40000080A64601E0DEF8102042F82310627A09
:100B50006F4801339A42F6DCDFF8C4A1DAF80020CE
:100B60000AB9C9E01A465369002BFBD15461DFF87A
:100B7000AC91694B664823604FF0000BC4F814B089
:100B8000A4F804B0A4F806B001F0F2FB022009F1C9
:100B900018025B465946C9F8008089F808B0C9F8C0
:100BA0000CB089F80900C9F81020CE4601E0DEF843
:100BB000102042F8231099F80920584801339A422E
:100BC000F5DCDAF80020564B0AB998E01A4653696A
:100BD000002BFBD1C2F814904FF00008514B4F4846
:100BE000C9F81480A9F80480A9F80680C9F8003073
:100BF00001F0DAFD4C48DFF894A180F8088080E825
:100C0000800280F80980C0F80C8004F0D1FB474BCB
:100C1000184683F808801F605D6083F80980C3F878
:100C20000C8004F0C5FB424B0125184683F8088070
:100C300083E84002C3F80C805D7204F0B9FB3D4BC1
:100C4000184683F808801E605C6083F80980C3F84A
:100C50000C8004F0ADFB3849384B0B6007220E23A3
:100C60000A2401920093032204230C7234480221C7
:100C700000F03CFC3348FFF78BFD3348FFF788FD5D
:100C80003248FFF785FD3248FFF782FD504601F0FC
:100C900057F8304B3048314A8AF80F50CAF80000F4
:100CA0002F49C3F800801846022580241C71AAF839
:100CB00010808AF80E5007F01BFA2A492A4801F0E2
:100CC00061F847F23051294801F05CF840F6B8313C
:100CD000274801F057F803F0FFFA264B2649186021
:100CE0004022264800F028FB1C4A2549234803B02F
:100CF000BDE8F04F07F0FCB9CAF8000037E718600C
:100D00006AE700BFDCBDFF1FBCBCFF1F00BEFF1FAA
:100D100040BCFF1FF89D0000209E000024BEFF1F66
:100D2000D8C3FF1F2C9E00007CBCFF1F8CBCFF1F84
:100D3000F0BCFF1FA8BCFF1F00BDFF1F049E0000EA
:100D400018BDFF1F5CBDFF1F9CBDFF1F60BEFF1FC6
:100D5000ACBEFF1F54BEFF1FFC8B0000FCAFFF1F8B
:100D60002108000040420F002CBCFF1F9CBCFF1F4D
:100D7000E4BCFF1F44BEFF1F08C4FF1F60BCFF1F71
:100D800071130000389E00002C8C000018BCFF1F5F
:100D90002DE9F041B14CB248216882B000F0F8FF73
:100DA0002168B04800F0F4FF2168AF4800F0F0FF80
:100DB000AC4801F009F8012824D0A94801F004F852
:100DC00001282DD0A848A94D00F0FEFF03F084FAB9
:100DD0002B682268C01A824211D003F07DFAA44A1F
:100DE000A44B11681B682A680B44801A83429CBF7D
:100DF00052182A6003F070FA2B68C01A206002B003
:100E0000BDE8F0819C4800F0BFFA9B4800F0F6FA7C
:100E10000C28D2D102469949974800F0F3FACCE762
:100E200000219748FFF77CFB00219648FFF778FBED
:100E300000219548FFF774FB00219448FFF770FBF1
:100E400093480021FFF712FB8D4800F073FF002844
:100E500040F0AA808F4F904D8A4800F06BFF90B110
:100E60008E4B1E78002E00F08F818648FFF728FCFD
:100E700001B28648FFF7D2FC8248FFF721FCC1B2DD
:100E80008348FFF717FC804800F054FF58B1834BAC
:100E90001E78002E00F059817B48FFF711FCC1B28B
:100EA0007A48FFF7B7FC794800F044FF002800F0CB
:100EB000BB807B4B794A92F80080002601221A7091
:100EC0002E70B8F1000F40F005814246414675484A
:100ED00000F09EFC0D227449724804F099FB4246D2
:100EE0004146704800F094FC062270496D4804F0B9
:100EF0008FFB6648FFF718FC6D4906F0E5FD06F02C
:100F0000B9FA022502460B460095664804F0DCFB60
:100F1000644800F057FC5D48FFF706FC644906F0A2
:100F2000D3FD0021054607F075F8002840F0B08198
:100F30006049284607F08CF8002840F0A5815E49FA
:100F4000284606F0C9FE07F0B3F85C4BD86150485C
:100F500000F0F0FE002870D1594EDFF874813B7824
:100F60004C4A012B00F078814948564DFFF7A4FB0D
:100F7000B8F80030288043486B80FFF7A1FBA880B9
:100F80004348FFF79BFB33884D4A2B81012B04BF5D
:100F9000002313806B89E88001334A4936486B810E
:100FA0000C2200F051FA0DE73C4E3578002D00F090
:100FB00029813348FFF7B8FB0021054607F02AF8DE
:100FC000002840F063814FF07E51284607F040F83A
:100FD000002800F038814FF48032384B28481A62DC
:100FE000FFF7A2FB0021054607F014F8002840F0A7
:100FF00051814FF07E51284607F02AF8002800F072
:101000004B814FF48032304B1D481A62FFF758FB7A
:10101000204F002840F02F812C4A1F4D38700123AB
:1010200010702B70337017E72B78012B8FD11C4B6E
:101030001A78002A3FF43EAF89E7184B1D78002D3F
:1010400000F0C1801E4E1248DFF8848001233380F7
:10105000FFF732FBA8F8000081E700BF4CBEFF1F7E
:101060009CBCFF1FE4BCFF1F2CBCFF1F44BEFF1F26
:1010700000B0FF1F04B0FF1F60BCFF1FA0BEFF1F1A
:101080005CBDFF1F9CBDFF1F60BEFF1FACBEFF1FEE
:1010900018BCFF1FB8BCFF1F50BEFF1F5CBCFF1F6A
:1010A0003CBCFF1F18BDFF1F588C00004C8C00007B
:1010B0000000F041A655AC464B24BE47DCBDFF1FE7
:1010C00048BEFF1F0CBDFF1FBCBCFF1FE0BCFF1FC5
:1010D0005CBEFF1F32463146744800F099FB112276
:1010E0007349724804F094FA324631466F4800F072
:1010F0008FFB0D226F496D4804F08AFA6E48FFF7A6
:10110000DFFA0146694804F0D7FA0221674800F087
:10111000BBFB0A220421654800F07AFB6648FFF712
:10112000CFFA0925064646FA05F101F00101013D15
:101130005E4804F0C1FA6B1CF5D15C4800F042FB3C
:1011400000215A4800F0A0FBE5E6324631465748F8
:1011500000F05EFB0D225949544804F059FA32461A
:101160003146524800F054FB072255494F4804F0DD
:101170004FFA5448FFF7A4FA411E4C4804F09CFA79
:101180004A4800F01FFB87E632463146474800F0E8
:101190003FFB0D224949454804F03AFA32463146B0
:1011A000424800F035FB07224749404804F030FA36
:1011B0004648FFF785FA411E3C4804F07DFA3B485B
:1011C00000F000FB51E62A462946384800F020FB93
:1011D0000D223A49354804F01BFA2A46294633487D
:1011E00000F016FB06223A49304804F011FA39485B
:1011F000FFF762FA01462D4804F05EFA2B4800F032
:10120000E1FA1FE72A462946284800F001FB0D2293
:101210002A49264804F0FCF92A462946234800F0CA
:10122000F7FA08222C49214804F0F2F92B48FFF77D
:1012300047FA2B46C1B20A221C4804F0FDF91B48AC
:1012400000F0C0FAB5E64FF08F41284606F044FDA5
:1012500006F008FF0246C0E621480578002D7FF41D
:1012600083AE037029461148157000F09FFA0F48AD
:1012700000F0A8FA78E61B4D1B4B002201213970C3
:101280002A7032701A70E7E518485EE60022A4E67C
:1012900000205AE60022B6E64FF08F41284606F0BD
:1012A0001BFD06F0DFFE0246ADE600BF18BDFF1FC6
:1012B000548C0000688C0000ACBEFF1F588C0000EE
:1012C000448C000060BEFF1F3C8C00009CBDFF1FD3
:1012D000788C000018BCFF1F308C00005CBDFF1F25
:1012E000E0BCFF1F50BEFF1F3CBCFF1F80FFFF7F05
:1012F0002F280BD939280BD960280BD9662801D89B
:10130000A0F15703462898BFA0F13703184670474D
:10131000A0F130034028F5D8F8E700BF002809DB2A
:10132000092802DC3030C0B270470F2802DC3730A9
:10133000C0B2704724207047F8B5044600237E27CA
:101340000D260A2502801046A576A381E381A374A9
:101350002382E376E374277666760D4604F096FAE8
:101360006060208804F092FA6561A0602046F8BDB4
:1013700010B50446406808B104F08AFAA06808B1C4
:1013800004F086FA204610BDF8B5068A3EB9044638
:1013900003250127606903689B68984700B9F8BD79
:1013A00060690368DB689847237EC0B283420AD035
:1013B000E37C012B0CD0A2892188914200D97BB912
:1013C000013DE7D1F8BD013DA681E774FAD0E1E720
:1013D0000A280ED00D280CD0A28923889342EFD979
:1013E00063689854A389013D03F10103A381E9D007
:1013F000D0E70022A389E2742382F8BD008A400866
:10140000704700BF038AEBB12DE9F0410646AAB14F
:101410004F1E4FEA420800247368185DFFF768FF0B
:10142000736802342344054613F8010CFFF760FF8C
:10143000444540EA051007F8010FEDD1002333823F
:10144000BDE8F081704700BF2DE9F047877C002F91
:1014500047D1836804460125007EE5811870F2B10A
:101460000D4601EB0209E689D4F80880731CE3817C
:10147000AA4615F8010B0009FFF750FF08F806000F
:10148000E689D4F80880731CE3819AF8000000F024
:101490000F00FFF743FFA94508F80600E3D1E389F1
:1014A000A268617E581CE081D154E389A268A17EC4
:1014B000581CE081D154E389A268E17E581CE08188
:1014C000D154A368197849B10025606903681B6885
:1014D00098470135A368595D0029F6D13846BDE823
:1014E000F08701273846BDE8F08700BFF0B4002739
:1014F000074E9DF81050C17182719DF81410054A75
:10150000077106600572437141720264F0BC704756
:10151000AC9B000040420F0038B504460D46807970
:10152000002102F0CDFE29462046BDE8384000F0FB
:101530003BBB00BF38B504460D468079002102F060
:10154000BFFE45F0B0012046BDE8384000F02CBB9E
:1015500038B504460D468079002102F0B1FE2046E0
:10156000212100F021FBA079002102F0A9FE05F065
:101570007F01204600F018FBA079002102F0A0FEB8
:1015800020467F21BDE8384000F00EBB70B505460F
:101590000026F1B22846FFF7CDFF00212846FFF7CD
:1015A000D7FF80240121A87902F08AFE0021284675
:1015B00000F0FAFA013CF5D10136082EE9D170BDF0
:1015C00070B5794B00251A6880F83850137880F888
:1015D0003630537880F83730937880F83930D378C4
:1015E00080F83A301379527903EB8303044603EB16
:1015F000830302EB830301268079E387314684F875
:10160000355084F83B5084F83C5084F8346002F044
:101610005DFE3146E07902F059FE204600F04CFABA
:101620003146E07902F052FE3146E07902F048FEA0
:10163000052002F073FE2946E07902F041FE0A20FF
:1016400002F06CFE3146E07902F03AFE2946A079BC
:1016500002F036FE2046AE2100F0A6FA2946A07917
:1016600002F02EFE2046D52100F09EFA2946A079F0
:1016700002F026FE2046802100F096FA2946A07945
:1016800002F01EFE2046A82100F08EFA2946A0791D
:1016900002F016FE20461F2100F086FA2946A079A6
:1016A00002F00EFE2046D32100F07EFA2946A079F2
:1016B00002F006FE2946204600F076FA2946A07977
:1016C00002F0FEFD2046402100F06EFA2946A07986
:1016D00002F0F6FD20468D2100F066FA2946A07939
:1016E00002F0EEFD2046142100F05EFA2946A079B2
:1016F00002F0E6FD2046A12100F056FA2946A07925
:1017000002F0DEFD2046C82100F04EFA2946A079FD
:1017100002F0D6FD2046DA2100F046FA2946A079EB
:1017200002F0CEFD2046022100F03EFA2946A079C3
:1017300002F0C6FD2046812100F036FA2946A07944
:1017400002F0BEFD20468F2100F02EFA2946A07936
:1017500002F0B6FD2046D92100F026FA2946A079EC
:1017600002F0AEFD2046F12100F01EFA2946A079D4
:1017700002F0A6FD2046DB2100F016FA2946A079EA
:1017800002F09EFD2046402100F00EFA2946A07985
:1017900002F096FD2046AF2100F006FA2046BDE893
:1017A0007040FFF7F3BE00BF08B0FF1F012901D151
:1017B000FFF7ECBE4FF400720021014806F09ABF1B
:1017C00018B0FF1F2DE9F041104C05464FF00008FE
:1017D0005FFA88F12846FFF7ADFE00212846FFF7A3
:1017E000B7FE04F1800714F8016FA879012102F017
:1017F00067FD3146284600F0D7F9BC42F3D108F125
:101800000108B8F1040FE3D1BDE8F08117B0FF1F64
:1018100080F83B1080F83C20704700BF10B40C06E5
:101820009DF8040012D41F2A10D8012810D0012BD3
:101830001CD0D30801EBC311124C02F00702635C09
:10184000012000FA02F223EA0202625410BC70473F
:10185000012BFBD1D00801EBC0110A4C02F00702AA
:10186000605C03FA02F242406254EFE7D00801EBF9
:10187000C011044C02F00702605C03FA02F202435A
:101880006254E3E718B0FF1F03291BD80E4B80F802
:10189000381053F82120137880F83630537880F8C8
:1018A0003730937880F83930D37880F83A3013792C
:1018B000527903EB830303EB830302EB8303C387B8
:1018C000012070470020704708B0FF1F2DE9F04F3E
:1018D00090F8395089B09D429DF848909DF84CB0E1
:1018E00071D890F83A402C449C426CDD079290F8F5
:1018F00037200491D2085B1BDBB2012A074606920F
:10190000039363D9C18F90F83630039CBDF818005B
:1019100091FBF3F210FB01F094FBF2F102FB114298
:1019200012FB03F210FB01F10A4492B2059200226D
:101930000392002B40D0079B039A03EBC2060023BF
:10194000F6B20293444997F838309DF808A051F850
:1019500023300599FA8F0B440399534401FB02335A
:10196000049A9D7902EB0A085FFA88F8002432197C
:1019700015F0010F9646B9FA89F3D2B241463846BE
:101980004FEA531309BF5FFA8EF24B464146384681
:10199000CDF800B00134FFF741FF082C4FEA5505A0
:1019A000E5D1029A97F836300AF1010A5FFA8AFA0D
:1019B000013253450292C5D8039A06990132039227
:1019C000D2B29142B5D809B0BDE8F08F4FF0000A0D
:1019D000CDF808A090F836209DF808A0079E924503
:1019E00037D01D4997F8383051F82330039902FB5E
:1019F000013353449D79049B0AEB03085FFA88F88E
:101A00000024321915F0010F9646B9FA89F3D2B2C3
:101A1000414638464FEA531309BF5FFA8EF24B46F0
:101A200041463846CDF800B00134FFF7F7FE082CE8
:101A30004FEA5505E5D1029997F836200AF10103DE
:101A4000DBB201319A420291BDDB9DF808A09245BC
:101A5000C7D10025CFE700BF08B0FF1F70B50A2926
:101A600082B004461BD00D2923D090F8356090F841
:101A7000345090F83C200B4690F83B108DE8600005
:101A8000FFF724FF94F8362094F83B3013440133D9
:101A9000DBB2C2F18002934284F83B3009DD94F856
:101AA0003C1094F8373000220B4484F83C3084F822
:101AB0003B20012002B070BD70B504460121407981
:101AC00002F004FC0121607902F0FAFB627A304BEB
:101AD0000B2A19782BD0072A10D02E480A46016805
:101AE000217A1A700D291FD00E2923D029481146BA
:101AF00002681970BDE8704000F058BF41F0010263
:101B000024480068C504EBD59142E9D0D10728D418
:101B10002149224D4FF4A2764FF410702E600860D8
:101B2000217A1A700D29DFD102F0FB0104E001F0E7
:101B3000FE02E5E742F0040116480068C004D8D56B
:101B40009142D6D04A0715D5154C164A4FF4A275C6
:101B50004FF40070256010601970BDE8704000F00F
:101B600025BF0D4D0D494FF4A2764FF400702E6045
:101B70000860B5E70B4C0A4A4FF4A2754FF4107099
:101B8000256010601970BDE8704000F00FBF00BF05
:101B900004C4FF1F3C80044018B0044008C0044047
:101BA00014B0044004C00440F8B504463C4D3D4820
:101BB000276C0E46002202E0172908D00A4630F8AA
:101BC000023F95FBF3F39F4202F10101F4D3364B40
:101BD000364D53F822202B7842F0605103B372B691
:101BE0002B78D8070BD5324F3248D7F800C00068A1
:101BF000DFF8D4E00CEA0000CEF8000038609F0760
:101C00000BD52D4F2B48D7F800C04068DFF8B8E05F
:101C10000CEA00003860CEF80400580734D462B6ED
:101C2000264BD868884207D042F0F042244F25481E
:101C30001F60D9601A6118600021607902F040FBD2
:101C40001E4B4FF00042DA6219465E63CB6A1B4AB4
:101C5000002BFBDA6079936B012102F031FB2B78CA
:101C60008BB1D90703D51849184A096811609A073A
:101C700003D51549164A496811605B0703D5124A16
:101C8000144B92681A60F8BD13480A4BD0F800E074
:101C90009B680D4F0EEA03030360BB60BFE700BF04
:101CA000006CDC023A9E00006C9E000084BFFF1FA7
:101CB00080E100E06CBFFF1F84E100E000C0024053
:101CC00001401F0000001F8078BFFF1F00E100E0FF
:101CD00004E100E008E100E088E100E0704700BFB7
:101CE000704700BF034610B5007B5C6802F0CAF87D
:101CF000208010BD38B50A4B044640F8043B0D4621
:101D000000F026F8074B2360E8B2002102F0DEFA6B
:101D10000220A06003F0BAFDE5606060204638BD97
:101D2000BC9B0000CC9B0000704700BF4160704727
:101D3000007A7047037A0BB100220272184670478E
:101D4000024A026000220272704700BFDC9B000062
:101D500000214FF0FF3280E80600704710B50446BE
:101D6000002302202360606003F090FD2060204685
:101D700010BD00BF10B50446006808B103F088FD2F
:101D8000204610BD0022816002704260704700BF93
:101D900043688B4270B403DD0A4A12689B1A4360A1
:101DA000846802262344012508E090F9002043605E
:101DB000002A14BF32462A46234402709942F4D2C4
:101DC00070BC704700B0FF1F0346002290F900006E
:101DD0001A7070472DE9F04F00F5807EB1E8A00A37
:101DE000B2E84015C5EA0643C6EA2544C7EA0845F5
:101DF000C8EA2746C9EA0A47CAEA2948CBEA0C4991
:101E0000CCEA2B4AA0E8F8078645E7D1BDE8F04FB9
:101E100070474FF000022DE9F00F00F5807C00BF05
:101E2000B1E8A00AC5EA0203C2EA2544C7EA0205EE
:101E3000C2EA2746C9EA0207C2EA2948CBEA0209F0
:101E4000C2EA2B4AA0E8F8078445E9D1BDE8F00FC3
:101E500070474FF000022DE9F00F00F5807C00BFC5
:101E6000B1E8A00AC2EA0543C2EA0504C2EA07458E
:101E7000C2EA0706C2EA0947C2EA0908C2EA0B49F0
:101E8000C2EA0B0AA0E8F8078445E9D1BDE8F00FE3
:101E900070472DE9F00F089C00F5007B51F8045BBA
:101EA00053F8046BC5EA0647C6EA254952F8045BB5
:101EB00054F8046BC5EA0648C6EA254AA0E880073C
:101EC0008345EBD1BDE8F00F704700BF70B500212E
:101ED000064603F061FAC0B1B6F91E40B6F920100B
:101EE000031D00F5827533F9022B9442A8BF1446F6
:101EF0009142B8BF11469D42F5D80123F483318445
:101F00003377BDE8704003F009BA70BD0020704718
:101F100000207047F8B51F4C027A0E465200C1F3FC
:101F2000072101250746204684F83B2084F85E50AF
:101F300084F85D5001F0E6FAF1B2204601F0E2FAD1
:101F40002046002101F02AFC08B10020F8BD2B46F4
:101F5000397A0222204601F0B7FC0128F5D994F81D
:101F6000381094F83950A94210D263184A1CD2B2E2
:101F7000187E84F8382095424FEA002306D922447F
:101F80000231107E84F838101843F8BD4FF0FF304E
:101F9000F8BD00BF64C2FF1FF8B5144C037A2429B2
:101FA00008BFC2805B0001250E462046C1F3072111
:101FB000174684F83B3084F85E5084F85D5001F099
:101FC000A1FAF1B2204601F09DFAC7F3072120469D
:101FD00001F098FAF9B2204601F094FA2946204619
:101FE00001F0DCFBB0FA80F04009F8BD64C2FF1FCD
:101FF00038B5012504460571334801F0B5FA0520CE
:1020000002F08CF9204644F260023021FFF7C4FF51
:1020100020466C222621FFF7BFFF20464FF4F972BD
:102020002821FFF7B9FF204640F622722C21FFF746
:10203000B3FF204644F246423C21FFF7ADFF204665
:1020400040F237122421FFF7A7FF204644F2FF0297
:102050003021FFF7A1FF732202212046FFF79CFFEA
:102060004FF4C87002F05AF9204641F61D522E2155
:10207000FFF792FF042211462046FFF78DFF20460E
:102080004FF498720621FFF787FF204610220A219D
:10209000FFF782FF204600220E21FFF77DFF20463A
:1020A00043F63C421021FFF777FF204647F67F7248
:1020B0002221FFF771FF204636222421FFF76CFF13
:1020C0006572284638BD00BF64C2FF1FF8B51C46C4
:1020D000154606460F46FFF71DFF20EA040040EABA
:1020E0000504394630462246FFF756FF002814BF44
:1020F00020460020F8BD00BF1F2908B50DD80C29C7
:1021000008D840F60D5241F61F732E21FFF7DEFF6F
:1021100080B208BD41EA0122F5E741F61F72F2E7FD
:102120000F2928BF0F210F2A28BF0F2242EA0112D0
:102130002021FFF731BF00BF10B5044619B10129B6
:1021400011D0002010BD55222021FFF725FF0028C7
:10215000F7D0E28842F00402204692B22421BDE882
:102160001040FFF719BF40F273122A21FFF714FF46
:102170000028E6D0882220212046FFF70DFF002806
:10218000DFD0E288204622F004022421BDE810407E
:10219000FFF702BF38B50546F1B1802903799ABF30
:1021A000C1F1800444EA0424002433B922462846BD
:1021B0002221BDE83840FFF7EFBEC288002322F09D
:1021C000100203712421FFF7E7FE22462846222150
:1021D000BDE83840FFF7E0BE0123037147F67F7288
:1021E0002221FFF7D9FEEA8842F01002284692B277
:1021F0002421BDE83840FFF7CFBE00BF0B4610B525
:1022000007490446184605F067FD064905F05CFCE1
:1022100005F04EFF01462046BDE81040FFF7BABF6B
:1022200000000143EE7CFF3E10B5044603F096F932
:10223000204610BD024A0349034805F059BF00BFBC
:10224000FCAFFF1F29220000ECBEFF1F38B5074D71
:10225000074C08482A46214605F04AFF2A462146EF
:102260000548BDE8384005F043BF00BFFCAFFF1F85
:1022700029220000F4BEFF1FFCBEFF1F024A0349D3
:10228000034805F035BF00BFFCAFFF1F2922000047
:1022900004BFFF1F024A0349034805F029BF00BFDE
:1022A000FCAFFF1F292200000CBFFF1F10B500214B
:1022B00003F072F870B172B60A4B1A6872B10A492B
:1022C0000C6844B11C60086062B61046BDE810405E
:1022D00003F024B810BD086062B610BD186062B685
:1022E00010BD00BF24BFFF1F14BFFF1F38B5194B1F
:1022F00019491A68194C12681B79194D0B70A242C2
:10230000286836BF2246A4F5807202F58074C8B1F1
:10231000011D31F9023B03F5FF437F331B1122F806
:10232000023B9442F5D802F0F9FF0E4B00221968E7
:1023300029601A600C4B1B781BB10C4B4FF080428C
:102340001A6038BD40F2FF7322F8023B9442FBD87A
:10235000F0E700BF18BFFF1F1F8000408CA6FF1FC3
:1023600024BFFF1F14BFFF1F20BFFF1F08E200E0B4
:10237000F8B501215148524D03F08CF8514A5249A9
:102380001368802043F480531360002408702C806D
:102390000120083401F0C2FFA3B2B3F5006F1CB2F4
:1023A000F5D14A4B1B685B0208D5494B1A6848F6C1
:1023B000A273134048F6A27293426DD04349444A37
:1023C0000B68444F444D4548454C43F480030B6033
:1023D0004FF0010E40F23F4648F6A37140F2011360
:1023E000C7F800E02E60116014600360334D3D4972
:1023F0002B6800221960197C1A746FF03F01587C19
:1024000059740C21987C99744021D87CD974997D99
:102410009A750124D97DDC7502204FF0FF316FF0F1
:1024200001065A715A729A72DA721A731A755A75CB
:102430001A765A769A76DA765E739C71DC71187128
:1024400018729973D973997F29799A7701F180412C
:10245000D87FDC7701F5043106201E7F1877B02085
:102460005E7F5A770A70087002F0BAFF2A791E4B15
:102470001E4E187053119B0003F1604302F01F05BC
:102480001B49327003F5614302F11000AC40194D55
:1024900041F820501C60F8BD0F4B1A6840F23F43D2
:1024A0009A428BD10B4B1B68012B87D10B4B1A68BF
:1024B00040F201139A4281D198E700BF18BFFF1F75
:1024C00000C00C402C80044021C00C403C800440E3
:1024D000006003400C600340046003401060034050
:1024E000A28F01008CA5FF1F20BFFF1F1B80004093
:1024F00000AAFF1FED220000024A0349034805F02D
:10250000F7BD00BFFCAFFF1F2922000018BFFF1F4F
:102510002DE9F84F344B35481A68354912681B7954
:102520000B70824229D2334B1B784BBBDFF8D4A00F
:10253000DFF8D490DFF8D480DFF8D4B0DAF80060A8
:10254000D9F80070B8F80040BBF80050002E3CD01D
:10255000A7B33A1D311D02EB450201EB4401FFF721
:1025600039FC403540347F2C1CD8A8F800407F2D22
:102570000BD8ABF80050BDE8F88FA0F58070D5E718
:102580001D4B4FF080421A60D0E700243846ABF86C
:10259000004002F0C3FE194B1A68C9F800201C6005
:1025A000BDE8F88F00243046A8F8004002F0B6FEDF
:1025B000134B1A68CAF800201C60D8E7311D01EBE4
:1025C0004401FFF726FC4034CDE737B1391D01EB5C
:1025D0004501FFF73EFC4035C5E739464FF48072B0
:1025E000BDE8F84F06F086B82CBFFF1F8CA8FF1F70
:1025F0001F80004044BFFF1F08E200E040BFFF1FF4
:1026000048BFFF1F3CBFFF1F34BFFF1F28BFFF1F76
:1026100038BFFF1F70B50021044602F0BDFE80B137
:1026200072B61C4A1368002B29D01B490D6805B3EC
:102630001A4E156000220860328062B6184602F019
:102640006DFE2046012102F0A7FE88B172B6144A41
:102650001368CBB113490C6874B1134D1460002298
:1026600008602A8062B61846BDE8704002F056BE87
:1026700070BD086062B6E4E7086062B670BD0749E5
:1026800010600B8062B6DCE7074910600B8062B611
:1026900070BD00BF3CBFFF1F48BFFF1F28BFFF1F0B
:1026A00034BFFF1F40BFFF1F38BFFF1F284B294902
:1026B0001A68294842F400421A600A6842F002028D
:1026C0000A601A6842F002021A600368002B3DDBC0
:1026D000224B1B68002B39DB214A4FF086431360E5
:1026E0001368002BFCDBF0B51E4C1F48DFF8ACE094
:1026F0001E491F4B1F4A204F204E214D41F2100C06
:10270000C4F800C0002404600120CEF80000DFF807
:1027100090E0C1F800E04FF480311960194B13606C
:10272000DFF880E0184A3A60346028601748CEF835
:102730000000174CB9671748174946F8503C4FF44A
:10274000C0632A61236003600B60F0BD704700BF67
:102750003C8004404080044000F0024080F0024091
:1027600000F1024004F1024060F0024008F0024033
:102770000CF0024010F0024014F00240E0F0024081
:1027800084F002401B0F0100000F0F0F03000047F1
:1027900008B004400CB0044018B0044004F00240FB
:1027A0000300000788F00240F8B5354E354F30463B
:1027B000012102F06FFE344A344B002414601C6087
:1027C000FFF774FF324B33494FF4C0621A6033682D
:1027D00020221960197C1A746FF00F02597C5A7408
:1027E0000222997C9A744021D87CD974997D9C7579
:1027F00001254FF0FF316FF001005C715C729C723B
:10280000DC721C731C755C751C765C769C761A7188
:102810001A725873DA7D9D71DD71DD759973D97304
:10282000DC763279997F9C7702F18042D97FDD771F
:1028300002F504320621187F19778F21587F5C77C3
:102840001470117002F0CCFD3279134B13491870DB
:1028500053119B0003F16043164602F01F0403F579
:10286000614310320E483E70A5404FF080770D4E08
:102870000D4C0F600E6040F822401D60F8BD00BF97
:102880002CBFFF1F1B8000403CBFFF1F34BFFF1F3A
:1028900004B004408CA7FF1F44BFFF1F00F002409C
:1028A00000AAFF1F0100009011250000024A034901
:1028B000034805F01DBC00BFFCAFFF1F292200002C
:1028C0002CBFFF1F024A0349034805F011BC00BF9B
:1028D000FCAFFF1F292200004CBFFF1F024A034923
:1028E000034805F005BC00BFFCAFFF1F2922000014
:1028F00054BFFF1F024A0349034805F0F9BB00BF5C
:10290000FCAFFF1F292200005CBFFF1F024A0349E2
:10291000034805F0EDBB00BFFCAFFF1F29220000FC
:1029200064BFFF1F036A2DE9F04780464BB9D8F812
:102930001830D8F81C2003EBC213C8F81830BDE8D3
:10294000F08702F09FFC06460028F0D0D8F81890D7
:10295000D8F81C70D8F820C0134D4946841C00F5E7
:10296000817E0B0E5A1C35F9130035F91220C1F384
:102970000F2ACAF5803300FB03F30AFB023353FB33
:102980000CF324F8023FA6453944EAD109EBC717F6
:102990004046C8F818703146002202F0E3FC304689
:1029A000BDE8F04702F0BABCEC9B00001649174B9B
:1029B0000A681748F0B442F48052164F164E174D6D
:1029C000174C0A601F60DE601D611C600378D90728
:1029D00055BF144A144A4FF410714FF4007111603E
:1029E0009A0754BF114A124A5B074FF4007154BF53
:1029F000104B114B116054BF4FF410724FF4007222
:102A00001A60F0BC704700BF3C80044000C0024028
:102A100004C4FF1F01401F0001100038011000789E
:102A200000001F8018B0044008C004401CB00440DF
:102A30000CC0044014B0044004C00440064B074AD4
:102A4000DA620221002259609A7083F8242083F808
:102A5000302083F83220704788BFFF1FD09E0000CF
:102A600008B50121007801F02BFC0E4B1A7802B951
:102A700008BD0D4A127800211970002AF8D0D0073D
:102A800003D50A490A4B09681960910703D507491C
:102A9000084B496819605307EAD5044A064B926807
:102AA0001A6008BDE0BFFF1F84BFFF1F78BFFF1F74
:102AB00000E100E004E100E008E100E0204B1A78CA
:102AC0001AB10078002101F0FBBB70B41D491E4A09
:102AD0000C78126801251D7004B372B60B78DC0700
:102AE00007D51A4C1A49266809681A4D31402960E1
:102AF0002160990707D5184C154926684968154D76
:102B00003140216069605B0707D51449104B0D689F
:102B10009B68104C2B400B60A36062B6104BD968C9
:102B2000914207D00F4C1C600F49DA6042F080449C
:102B30001C6119600078002170BC01F0C1BB00BFAE
:102B4000E0BFFF1F84BFFF1FDCBFFF1F80E100E06D
:102B50006CBFFF1F78BFFF1F84E100E088E100E049
:102B600000C0024001401F0000001F80F0B4134C61
:102B7000134A236882B01746009300984FF000462E
:102B800080B2FF25136843F480631360D6625563F7
:102B9000D36A002BFCDABB6BDBB2FF2B0AD02368B5
:102BA0000193019B9BB21B1A8B42EBDB002002B00E
:102BB000F0BC7047012002B0F0BC7047D8C2FF1FC4
:102BC00000C00240F8B50D464FF496711646044613
:102BD000FFF7CCFF284B1A684FF0004042F48062A8
:102BE00045F040011A60D8621A465963D36A002B37
:102BF000FCDA214918204FF000470A6826FA00F352
:102C000042F48062DBB20A60CF624B63CB6A002B76
:102C1000FCDA083810F1080FEFD155B3082D0CBFBE
:102C20008721FF21144B1A684FF0004042F4806264
:102C30001A60D8621A465963D36A002BFCDA0E4A2E
:102C4000002716464FF00045FF21136843F48063C8
:102C50001360D5625163D36A002BFCDAB36BD8B230
:102C60001B06607000D4F8BD0137B7F5807FECD14A
:102C7000F8BD9521D6E700BF00C00240F0B4164C65
:102C8000164A236882B01746009300994FF0004619
:102C900089B2FF25136843F480631360D6625563DD
:102CA000D36A002BFCDABB6BDBB2FF2B43700BD17A
:102CB00023680193019B9BB25B1AB3F5967FE9DD14
:102CC000002002B0F0BC7047A3F1FE00B0FA80F023
:102CD000400902B0F0BC7047D8C2FF1F00C00240DC
:102CE000F8B58378032B0E46044618BF4E021546EE
:102CF000FFF7E4FE324611212046FFF763FF18B9C3
:102D00002046FFF7BBFF20B92046FFF7A9FE0020B1
:102D1000F8BD204B2049214A1A608E4659631A4655
:102D200059631E46596305F5FD70A91C05F5FE772C
:102D3000D36A13F0F00FFBD0C6F834E0B36B01F8A0
:102D4000013C1B1201F8023C02318F42F0D105F523
:102D50000075A8420DD20F4A1646D36A13F0F00F41
:102D6000FBD0B36B191200F8021BA84200F8013C1B
:102D7000F3D3084B0949084A196019465A63CB6ACC
:102D8000044A13F0F00FFAD02046936BFFF768FE69
:102D90000120F8BD00C00240FFFF009000041F802A
:102DA000F0B4314E33684FF0004743F48063336032
:102DB0003D46F762344671633346511C02F20127E7
:102DC000E26A002AFCDA1A6811F8016C42F48062A7
:102DD0001A60DD625E63E26A002AFCDA1A6811F8A2
:102DE000026B42F480628F421A60DD625E63E7D15B
:102DF0001D49CA6A1C4B002AFBDA1A684FF00045CD
:102E000042F48062FF241A601946DD625C63CB6A7B
:102E1000154A002BFBDA13684FF0004543F480633A
:102E2000FF2413601146D5625463CB6A0E4A002B0F
:102E3000FBDA13684FF0004543F48063FF2413600E
:102E40001146D5625463CB6A074A002BFBDA936BB9
:102E5000DBB203F01F024370A2F10500B0FA80F06C
:102E60004009F0BC704700BF00C0024070B5044686
:102E700071B18378032B0D4618BF4D021646FFF73C
:102E80001DFE2A4618212046FFF79CFE054620B16C
:102E90002046FFF7E5FD002070BD3246FE212046AA
:102EA000FFF77EFF0028F3D04FF416712046FFF79E
:102EB0005DFE0028ECD02A460D212046FFF782FE59
:102EC0000028E5D10B4B1A684FF0004542F48062B0
:102ED000FF201A601946DD625863CB6A054A002B51
:102EE000FBDA936B13F0FF0FD2D12046FFF7B8FD4A
:102EF000012070BD00C00240014B024A1A607047B9
:102F0000DCBFFF1F0110013838B590F90530002BE8
:102F100003DBBDE8384000F091B9044601210069A7
:102F200000F0B6F9F8B1257D104B13EB45151AD01A
:102F3000A3790F4A012B9CBFA369EB61E369126877
:102F40006B831B0CAB8232B105F1160105F1180041
:102F500090472B8B6B82637903F07F036371BDE82D
:102F6000384000F06BB9002038BD00BFF0BFFF1F34
:102F7000E4BFFF1F10B500F1080204460121006AFA
:102F800000F024FA50B1E3693BB96379A268E261C9
:102F900063F07F036371012010BD012010BD00BFED
:102FA000F8B5837913B182698A4201D20020F8BD55
:102FB000022B0F4605461AD007B32B6AE9681C7C22
:102FC0004A1E04F109037C1EDA40DC40A24211D9FA
:102FD000EB69AB6005F1080606E0A968286A00F015
:102FE000BDF9013C0028E1D03246002CF5D1EF605C
:102FF0000120F8BD0029EBD0A41AEBE7AF60EF6029
:103000000120F8BD2DE9F04F8B46817985B001296B
:103010008046019206D0012388F80430002005B0D4
:10302000BDE8F08F42799107F5D553070AD5D8F856
:103030000C40D8F818108C4200F0C680FFF7B0FFA3
:103040000028E8D0019BD8F80C40002B00F0AF809E
:10305000DFF8C891DFF8C8A1019F3AE0002C43D106
:10306000D8F80810002940F08380D8F81C20002AE6
:1030700000F09280C8F80820C4F50076B6B2BE42CF
:1030800039D890F810E04169023A02FA0EF20D4484
:10309000B6F5007F154435D1DAF80020954204BF1B
:1030A0004FF0FF32CAF80020584A294610685A46A5
:1030B000FFF7DCFE0028AED00BF5007B4FF4007468
:1030C000D8F80C20BF1B1444BFB2C8F80C40002F26
:1030D0006DD0D8F820000579013D05EA542515F09A
:1030E000FF05C4F30804B9D0C4F50076B6B2BE42F9
:1030F000D8F80820C5D9067C4169023AB2400D448F
:1031000015443E462CB9D8F80C10D8F81820914236
:103110001BD22846012100F0BBF800283FF47BAF0A
:103120004C4404EB060E744520D00BF1FF31621EB7
:103130000EF1FF3511F8010F02F8010F9542F9D198
:10314000C4EB0E0EF3443446BAE700F077F80028DB
:103150003FF461AF2E49CAF800500A784C4404EBA2
:10316000060E42F0010274450A70DED13446A7E72C
:1031700003AA00F0F3F800283FF451AFD8F820007C
:10318000244B90F82060039A4FF6F871102E18BF68
:1031900019468A42FFF46EAF4046FFF7EBFE002867
:1031A0003FF439AFD8F82000D8F8082064E7D8F801
:1031B0001830A3420DD298F80520C8F8184042F004
:1031C000800288F805200FE0019B002B7FF440AFC0
:1031D0000AE0114B98F805201B682BB1019B1BB12D
:1031E00042F0800288F8052012070AD598F80630C8
:1031F000002B3FF410AF4046FFF786FE00283FF457
:103200000AAF019805B0BDE8F08F00BFECBFFF1F0B
:10321000F0C1FF1FF8FFFF0FE4BFFF1FF0BFFF1F4C
:1032200018B2FF1F00B583B002AB012203F8011DE5
:103230001946FFF7E7FE03B05DF804FB70B50F4CCD
:1032400023780BB9012070BD0D4B0E4D196828680D
:103250000D4AFFF70BFE70B10C4E316819B900230F
:103260002370012070BD2868074AFFF7FFFD10B1E9
:1032700000233360F3E7002070BD00BFF0C1FF1FE3
:1032800018B2FF1FECBFFF1FF0BFFF1FE8BFFF1FFB
:1032900070B50D4D2B6883420E460ED00446FFF7E5
:1032A000CDFF08B9002070BD084B094A18682146B7
:1032B000FFF716FD0028F5D02C60064B1978314336
:1032C0001970012070BD00BF18B2FF1FECBFFF1FB7
:1032D000F0BFFF1FF0C1FF1FF8B590F82030C469A0
:1032E000102B1A4B05460E4617461B6816D004EBEA
:1032F000D1149C4216D106F07F06154A42F826707A
:103300001449287E0A78012842F001020A7018D96F
:10331000A968114A0B4413600120F8BD04EB112485
:103320009C4208D000212046FFF7B2FF50B195F82B
:103330002030102B07D1F6B2054A234622F816702A
:10334000DEE70120F8BD2346D5E700BF18B2FF1F16
:10335000F0BFFF1FF0C1FF1FE8BFFF1FC3680133AD
:103360008B4218D370B590F82030102B154B0446C3
:1033700016460D46C0691B680FD000EBD11098426D
:103380000FD105F07F01104B53F8213023F070432B
:103390003360012070BD0020704700EB112098427F
:1033A00007D00021FFF774FF50B194F82030102BA4
:1033B000E7D1E9B2044B33F811303360012070BD1E
:1033C000002070BD18B2FF1FF0BFFF1F2DE9F04FA6
:1033D000176883B06FB301374FF0000AC36803F179
:1033E000010813B38B46064691463C46002505E08E
:1033F0001C461F46F3680135AB4216D9A04538BFBD
:103400000224214601AA304638BF2746FFF7A6FF0F
:10341000631CD91B48B1019A002AE9D18B4510D011
:103420001C46F3680135AB42E8D8002003B0BDE884
:10343000F08FA1F1010ABAFA8AFA07684FEA5A1A1C
:10344000CCE7012CF1D9F36801339C42EDD86FF041
:10345000704221463046FFF73FFF0028E5D0A742E3
:1034600014D2013C012CE0D9F36801339C42DCD832
:10347000621C21463046FFF72FFF0028D5D0A74217
:1034800004F1FF3402D0012CEED1CEE7D9F80010C0
:1034900059B10129C9D9F36801339942C5D83A46CF
:1034A0003046FFF719FF0028BFD0C9F80070BAF105
:1034B000000F01D0013737600120B7E790F83920BD
:1034C00090F83800101A704790F8383090F839208A
:1034D0009A4205D95A1C034480F83820187E704758
:1034E0004FF0FF30704700BF90F8383090F8392027
:1034F0009A4286BF1B18187E4FF0FF30704700BFFE
:10350000704700BFB0F85E306BB190F85D30202B93
:1035100007D8C218013380F85D30012082F83B10D3
:103520007047012303710020704700BF38B505467E
:10353000B0F85E0090B195F85D301446C3F12102F9
:1035400094420CD805F13B001844224600F0EEFAF4
:1035500095F85D30234485F85D30204638BD012064
:1035600014462871EEE700BF0023426980F8383026
:1035700080F8393080F85C3080F85D3080F85E305B
:1035800080F85F3006CA30B40D68046943662A4388
:1035900083660A60A370426990F861301649146826
:1035A00013441D7A5B7B01EBC5051B026D6803F4B8
:1035B000E06343F064032B6090F8623013449D7C19
:1035C000DB7D01EBC5011B02496803F4E06343F0B6
:1035D00064030B6021685368194205D003692722F0
:1035E0005A70036904229A71036920225A7103698F
:1035F00080229A7030BC7047649F000010B5026949
:10360000D378DBB2D90604463DD510215806D170D7
:1036100038D503F0040303F0FF02002B51D03D49DD
:10362000626E00230B7084F85D30002A5BD09047F7
:1036300094F85D30002B56D02369D0229A7023690C
:1036400094F83B201A712369012284F85C2002223D
:10365000DA7010BD304B84F860009C424AD02F4B8A
:103660009C4252D094F8391013791F29DBB207D845
:103670002848007820B16018013184F839100376A9
:103680000223D37010BD5906C3D4917801F0100104
:1036900001F0FF000029DDD013F001031ED194F8E2
:1036A0005C1094F85D00884281BF4B1C091984F8B6
:1036B0005C3091F83B3013712369D0229A702269F3
:1036C000DEE7236984F83920C0229A702369114A01
:1036D0001979012111700222DA7010BDC023937094
:1036E00022691379CCE70122002384F85D2084F855
:1036F0003B30A1E7626994F8613009491344032221
:10370000187A00F00BFD2269ACE7626994F8613029
:103710000449F3E760C2FF1F64C2FF1FF4C1FF1F2B
:1037200085370000913700000369DB7803F0200340
:1037300073B190F860300133DBB2012B80F8603058
:103740001AD9426990F861301344187A00F062BDCA
:1037500070B5426903F0FF0590F8613013440446E8
:10376000187A00F057FDA36E5BB184F8385094F8D6
:103770003900BDE87040184790F85F30002BE0D06A
:10378000704770BD0148FFF7CFBF00BF64C2FF1F85
:103790000148FFF7C9BF00BFF4C1FF1FF0B50369BF
:1037A0001222DA70026993780546980687B04ED5E2
:1037B000B423444C937023680293029E2A6905E067
:1037C00023680393039B9B1B042B57D8D37803F0E8
:1037D000200303F0FF00002BF2D095F85D30002BA2
:1037E0002ED000274FF0020EEB1993F83B301371E7
:1037F00023680493DDF810C0286908E09B060ED505
:1038000023680593059BCCEB0303052B3DD8C378B8
:10381000DBB203F0020202F0FF06002AEED080F8CD
:1038200003E02A69D378DBB2DE063DD49E063BD5A1
:10383000DB0741D4013795F85D30FFB2BB42D3D8E6
:103840000020002934D1002385F85E301BE01D4C98
:1038500023680093009E05E023680193019B9B1B56
:103860000F2B19D8D37803F0200303F0FF00002BAF
:10387000F2D1B02385F85F0093709CE790702B69BC
:1038800080229A70042007B0F0BD86702B698022D8
:1038900004209A7007B0F0BD002393702B6980223A
:1038A00004209A7007B0F0BD802393700420C8E70D
:1038B0002A6980239370C6E7002F0CBF02200320E3
:1038C000F7E700BFD8C2FF1F2DE9F04106461225D9
:1038D0003469002086F8380086F83900E5703769C9
:1038E000BC7804F020048AB0002C3CD0B420704D89
:1038F000B87028680290DDF808E0376906E02C68A7
:103900000394039CCEEB0404042C47D8FC7804F009
:10391000200404F0FF00002CF1D0490041F0010127
:10392000C9B2397129680491049F346905E0296896
:1039300005910599C91B05293FD8E17801F00201DD
:1039400001F0FF000029F2D00227E7703169C87842
:1039500010F0110038D1002A3AD1002B0CBFA0235F
:1039600080238B701EE0524D04F0FF002C68009401
:10397000DDF800C006E02C680194019CCCEB040447
:103980000F2C12D8FC7804F0200404F0FF0E002C59
:10399000F1D1B02086F85FE0B870AAE7B87033695B
:1039A00080229A700AB0BDE8F0810023BB703369B1
:1039B00080229A700AB0BDE8F081A070336980223D
:1039C0009A700AB0BDE8F08180238B700020E9E78F
:1039D000012A57D0A0248C703469217986464FF093
:1039E000A80C29680691069805E0296807910799AF
:1039F000091A05294CD8E17801F0020101F0FF080D
:103A00000029F2D0013AD2B2E770012A04BF31692D
:103A100081F802C0BEF11F0F346942D806EB0E01D7
:103A2000207908760EF1010E5FFA8EFE012AD8D1B8
:103A30002A680892089805E02A680992099A121AD9
:103A4000052A30D8E27802F0020202F0FF01002AD3
:103A5000F2D00222E2703269B021BEF11F0F9170E4
:103A600023D8316906EB0E02097911760EF1010EA9
:103A70005FFA8EFE13B1336980229A7086F839E0BE
:103A800070468FE7A8228A70346986462279CFE78C
:103A900084F80280336980229A70704686F839E093
:103AA00080E72179C2E7A170F4E732691279E1E792
:103AB000D8C2FF1F0148FFF7A1BD00BF64C2FF1FAE
:103AC0000148FFF79BBD00BFF4C1FF1FF0B41049D0
:103AD000104B114A0A6100224FF47A740F4F1048BC
:103AE000104E114D0A710A7381F8612081F862202D
:103AF0001A711A7383F8612083F862204F618C6019
:103B00009C601E615D6108601860F0BC704700BF7A
:103B100064C2FF1FF4C1FF1F00600640D89E000072
:103B2000209F000000700640F89E0000844641EA95
:103B3000000313F003036DD1403A41D351F8043B25
:103B400040F8043B51F8043B40F8043B51F8043B77
:103B500040F8043B51F8043B40F8043B51F8043B67
:103B600040F8043B51F8043B40F8043B51F8043B57
:103B700040F8043B51F8043B40F8043B51F8043B47
:103B800040F8043B51F8043B40F8043B51F8043B37
:103B900040F8043B51F8043B40F8043B51F8043B27
:103BA00040F8043B51F8043B40F8043B51F8043B17
:103BB00040F8043B51F8043B40F8043B403ABDD286
:103BC000303211D351F8043B40F8043B51F8043B28
:103BD00040F8043B51F8043B40F8043B51F8043BE7
:103BE00040F8043B103AEDD20C3205D351F8043BB7
:103BF00040F8043B043AF9D2043208D0D2071CBF83
:103C000011F8013B00F8013B01D30B8803806046AB
:103C1000704700BF082A13D38B078DD010F0030321
:103C20008AD0C3F10403D21ADB071CBF11F8013B91
:103C300000F8013B80D331F8023B20F8023B7BE7E0
:103C4000043AD9D3013A11F8013B00F8013BF9D20B
:103C50000B7803704B7843708B78837060467047A5
:103C6000374A384913681B06FCD40B6813F08003ED
:103C7000F8D172B634490A78002A5FD0334A344802
:103C8000F0B4344C176806682568D4680C303E449C
:103C9000143200681268304F35442C4420440244EA
:103CA000C2F34E022D4E2E482E4D2F4C42F40042B0
:103CB0003A60376806682D682C4A24680C303E4408
:103CC000006812682A4F35442C4420440244C2F351
:103CD0004E02284E2848294D294C42F400423A60B1
:103CE000376806682D68274A24680C303E4400680F
:103CF0001268254F35442C4420440244C2F34E023E
:103D0000224E2348234D244C42F400423A60376847
:103D100006682D68214A24680C303E440068126809
:103D200035442C4420440244C2F34E021C4842F461
:103D3000004202600B7062B6F0BC704762B670471A
:103D400024B0034024B00B40D1C2FF1F38B0034061
:103D50003CB0034040B003402CB0034058B0034097
:103D60005CB0034060B0034064B003406CB00340FB
:103D700030B0034038B00B403CB00B4040B00B407B
:103D800044B00B404CB00B402CB00B4058B00B4033
:103D90005CB00B4060B00B4064B00B406CB00B40AB
:103DA00030B00B4030B42948294A2A4B2A4D6024B0
:103DB000E121047011701B78284C082B30D00A2B9D
:103DC0002748284937D00C2B0CBF35223D2212231F
:103DD0002A60236002600B60234B24491B78244A2D
:103DE000BBB101230B601360224B23491B78234A8C
:103DF000012B26D9042B0FD9082B1ED9102B94BFC9
:103E0000862387230B6013601D4B01221A7030BC80
:103E100070470B601360E7E784230B601360F3E7E0
:103E200000F58E200F490830012213232A602360F9
:103E300002600B60D0E73922F7E785230B6013603F
:103E4000E2E780230B601360DEE700BF004007401D
:103E5000014007401CB2FF1F08B003400CB00340F4
:103E600008B00B400CB00B40D4C2FF1F20B0034081
:103E700020B00B401DB2FF1F24B0034024B00B4004
:103E8000D1C2FF1F28282FD8334B2DE9F0411E5CEB
:103E9000FF2E2BD0314B1B78002B2AD132062CD48D
:103EA00072B62F4D2F4C2F46012326602B7062B621
:103EB00072B623681B060CD43B781BB9F4E72B7849
:103EC000002BF1D062B601F007FD72B62368180628
:103ED000F5D5254B1B6800222A7062B6234A10785C
:103EE00043FA00F0BDE8F081002070470020BDE8F3
:103EF000F081FFF7B5FE3206D2D572B61C4DDFF861
:103F00007C801C4C06F04007FFB206F03F06D8F854
:103F10000030DFB123F01003C8F800300123266021
:103F2000134A2B7062B672B6236819060CD4137844
:103F30001BB9ECE72B78002BE9D062B601F0CCFC82
:103F400072B623681B06F5D50B4BC3E743F010038D
:103F5000C8F80030E2E700BF389F0000D1C2FF1F61
:103F6000D3C2FF1F00B0034010B00340D0C2FF1FF8
:103F7000D2C2FF1F00B00B4010B00B400CB00B4082
:103F8000024A136801331360704700BFD8C2FF1F95
:103F900008B5104C08E0236859050DD423681A05AC
:103FA0000FD42368DB0411D423685803F3D500F041
:103FB0002BFB23685905F1D502F004F823681A0594
:103FC000EFD502F0A1FB2368DB04EDD502F054FE2F
:103FD000EAE700BF3480044008B5FFF7D9FF00BF0F
:103FE000014B10221A80704700200540704700BF27
:103FF000094908B50B6830B16A461844A2F58052E9
:10400000904202D20860184608BD04F07DF80C23E7
:1040100003604FF0FF3008BD20B2FF1FFEE700BF76
:10402000EFF3138070B9EFF310836BB9EFF30582F0
:104030005AB94FF48070EFF311832BB1984228BF27
:10404000184670474FF0FF3070470F2A01D81846C6
:10405000F1E7014BD05CEEE7F0E300E0704700BF12
:1040600010B40F4B53F8302092F880422CB101234A
:1040700069B182F8803010BC704703EBC0035B6805
:104080001A6841B922F002021A6010BC704782F827
:10409000003110BC704742F003021A6010BC704738
:1040A000649F00001C4A02EBC00301295B6811D029
:1040B00004291BD052F83000002280F8802229B158
:1040C000022920D0032922D01A6070474FF4807251
:1040D0001A60704752F830004FF4A27280F88012D4
:1040E0001A601A6822F020021A60704752F83010E5
:1040F0004FF4A272012081F880021A601A6842F01F
:1041000020021A60704740F203121A6070474FF4A1
:1041100081721A60704700BF649F0000212817D881
:10412000F8B5042A13D8DFE802F0494C4F144600D2
:104130002C4872B6236823F4702343F08072C4F3D2
:1041400084011643236040F82150266062B6F8BD12
:1041500070474FF41026244B03EBC0030D465C68F8
:10416000216811F4E06134D0204B214A2149C3F881
:104170009C2104F140422048C3F8A411A2F59221E9
:104180001E4FC3F8A0017C291D48C3F8A871C3F8CD
:10419000AC01CDD9A2F594237C2B18D9A2F5962396
:1041A0007C2B19D9A2F598237C2B17D9A2F59A223A
:1041B0007C2A15D9F8BD4FF43026CCE74FF4002601
:1041C000C9E74FF44026C6E74FF42026C3E70D4861
:1041D000AFE7FFF767FFC7E70B48AAE70B48A8E779
:1041E0000B48A6E724B2FF1F649F000000AAFF1F30
:1041F000D1AFFF1F79AFFF1FA5AFFF1F4DAFFF1F4F
:1042000021AFFF1F5CB2FF1FACB2FF1FDCB2FF1F6C
:10421000FCB2FF1F1A4B03EBC00010B4426802F15E
:104220004043A3F592217C2905D9A3F594217C294B
:1042300013D8144900E0144972B61368134C23F0E4
:104240008773C2F3840023F4803343F080731360D8
:1042500041F8204062B610BC7047A3F596217C2936
:1042600009D9A3F598217C2907D9A3F59A237C2B9A
:10427000F1D80749E0E70749DEE70749DCE700BF77
:10428000649F00005CB2FF1F24B2FF1F5D4000006E
:10429000FCB2FF1FACB2FF1FDCB2FF1F30B4054BF6
:1042A000054D064C002210211A602A60206019601A
:1042B00030BC704714D0034004D0034000D003400A
:1042C000212801D8FFF7CCBE704700BF212801D8B4
:1042D000FFF7E8BE704700BF72B60C490C4B0D4AA1
:1042E0001B680868126862B6520102D5322B88BF7B
:1042F00001300949C3F5BB334FF47A72FF33A1FB98
:10430000031302FB00F000EB93107047D8C2FF1FAD
:1043100018E000E004ED00E0ABAAAAAA2DE9F843FA
:10432000054672B6204F214B214A1B683C68126833
:1043300062B6520102D5322B88BF013495B3C3F562
:10434000BB331C4EDFF86490DFF86480FF334FF41A
:104350007A72A6FB031302FB04F404EB931472B607
:10436000D9F800103A68D8F800E062B6C1F5BB335E
:10437000FF33A6FB03031EF0806FC4EB93134FF4CF
:104380007A7002D0322988BF013200FB0233B3F5C4
:104390007A7F04D3013D05D004F57A74DFE701F09C
:1043A0009BFADCE7BDE8F883D8C2FF1F18E000E005
:1043B00004ED00E0ABAAAAAAF8B52D4B2D49DFF811
:1043C000D0E0DFF8D0C02C4E2C4D2D4C2D4A2E4F76
:1043D0004FF4000018604FF0807018604FF00070CC
:1043E00018604FF0806018604FF000601860002087
:1043F000086028234BF6FF71CCF80010CEF800308F
:10440000336013602B6023603B60B36293620922C8
:1044100045F8242CC4F8D80F05F57F65C7F8D41FDC
:1044200007F5FF2707F5FA67C6F8F83F2B6006F592
:10443000FF26C4F8D42F05F5FD2504F5FF243860C8
:1044400006F2F4761148316005F5FF6504F5FD6468
:104450002B6023600260FFF7A5FC3220FFF75EFFB0
:1044600000F0FCFC4FF4AF70BDE8F840FFF756BF1A
:1044700008E100E0048003401480034024800340EE
:104480002C8003401C8003403480034000800B409C
:104490000C80034008800340431E032B14D872B6DF
:1044A0000A4951F8230068B170B4094C058834F802
:1044B0001320466841F82360521B24F8132062B68B
:1044C00070BC704762B670470020704734C3FF1F4E
:1044D00010C6FF1F013803280BD872B6074B53F8DC
:1044E000203043B100205B680130002BFBD162B665
:1044F0007047002070471846F9E700BF88C3FF1FC8
:10450000F0B472B61A491B4E012311F8014B194F32
:104510009A00240742F0010505D556F8324064B1EF
:1045200056F83520BAB10133052BEED162B6124BE5
:1045300000221A70F0BC00F00DBD0F4C0F4D217819
:1045400047F8325007EB431308304A1E5860227078
:1045500062B6F0BC70470849094B0A7847F8353015
:1045600007EBC5030830013A58600A7062B6F0E7FD
:10457000A4A000000080FF1FB1C3FF1F88004000FF
:10458000C8004000431E032B1DD81B4A400140F0C9
:10459000100030B4104472B6184CE25C032A1BD8E9
:1045A000DFE802F00212151703220D88E25410F022
:1045B000080F14BFC823882343EA0543083103606A
:1045C000416062B630BC704708300222EDE7052238
:1045D000EBE708300422E8E7094A52F8230038B133
:1045E000084A52F82300416042F8231062B6E9E716
:1045F00042F82310034AF7E70080FF1FC0C3FF1FE4
:1046000088C3FF1F98C3FF1F2DE9F04FDFF800A3F9
:10461000DFF800B387B044E0A84F4FEA930807EBF8
:10462000C809013ED9F8042003F00803F6B2A2F14C
:10463000080003F0FF04002B40F0FC8057F83830EE
:104640001B0C99B222F8081C002B00F0EA809C4B4E
:1046500022F8064C42F8044C53F82620002A00F0B9
:104660002982984D55F826305860974C45F8260019
:1046700034F81630194424F8161000F04BFC0028CA
:1046800000F01182914A924B19F0080F00F10800D6
:1046900018BF1346C9F8040047F8383008238AF8D1
:1046A00000309AF80040E4B260071AD5894B1B78B5
:1046B000A3B189490A7802F0FF0322B1013BDBB2C2
:1046C0000B7003B900BE85490A7802F0FF032AB1D6
:1046D000013BDBB20B70002B00F0BB8104238AF896
:1046E000003004F0080303F0FF02002B00F0C68046
:1046F0009BF80030DBB21E098ED19C086F4F57F833
:10470000342007EBC401C2F38302013A49680C2A42
:1047100000F28380DFE802F07777818181818181F7
:1047200040818181070008686D4B6E4D0193674B96
:104730004A686D4E47F8343081B240F28164684B6C
:104740006A60286000220120A1421A603A61BA61C1
:10475000307000F2E180B1F5D06F80F02582B1F5C4
:10476000817F00F0DE8100F2C181802900F0348277
:10477000822940F0DC81A9885C4B042900F2D881B1
:104780005B4C89000B44227062701A78930740F1E9
:1047900022832070022023E2514B01931A683AB31E
:1047A000544B514E5449188834780D784028864629
:1047B00045F0020828BF4FF0400E002C84F00104A1
:1047C0003470CEEB00000CBF8824C82407EBC80669
:1047D00080B285F0010544EA0E447260188047F803
:1047E000384072440D70002800F0B780019B1A60B9
:1047F0003C4B1A88B2F5A06F0FD100219A785970FE
:104800003E4B1A7009E0374A108842F2210290426A
:1048100000F0A8802D4A47F83420394A012313704C
:104820003CE72A4A2A4B19F0080F18BF134647F8ED
:10483000383033E700F08EFB324A334952F82630E5
:10484000002B00F03B8158688C5D42F8260003F194
:104850000802C9F80420032C05D8DFE804F02C0274
:10486000292602228A551A8819F0080F0CBF8823BE
:10487000C82343EA024347F838300FE7E00700F166
:10488000EB80210600F12881A20706D51F4A2049A6
:1048900013780220DBB213700870E30602D51C4BBC
:1048A00010221A7007B0BDE8F08F04228A55DAE7AB
:1048B00005228A55D7E703228A55D4E70080FF1FD7
:1048C00034C3FF1FE0C2FF1F10C6FF1FC800400017
:1048D00088004000BCC3FF1F45C3FF1FC4C3FF1FA8
:1048E000DCC2FF1FA8C3FF1F44C3FF1FC020074037
:1048F000B4C3FF1FF0C2FF1FB0C3FF1F98200740C3
:104900009420074088C3FF1FC0C3FF1F88200740B3
:10491000802007409020074042F22104A14200F08D
:10492000948043D8B1F5086F00F0A881B1F5106FFD
:1049300040F0FD80B84AB94CA978117004F18005A7
:1049400003E00834AC4200F09E81236A1906F8D5D2
:10495000606A083800F0FEFAF3E7BEF1400F18BFB6
:10496000002243E7AE4ACD1D11F8013B02F8013F9A
:10497000A942F9D1AB4A1268862A00F01181AA49EE
:10498000AA4E0A78307882F00105002842F002022F
:104990000D700CBF8821C82147F8321007EBC20206
:1049A00080F0010000213070516033E742F2212491
:1049B000A14240F0FE81DFF8BCC29D4B9D49AC781E
:1049C000DCF800501D6081460C700020029080468B
:1049D0008446044694490D7845F0020E07EBCE0359
:1049E000B9F1000F5C600CBF8824C82444EA0803B6
:1049F00085F0010447F83E3032700C70DFF81CE29D
:104A00008A4BDFF82482002840F09880BCF1400FE8
:104A10001BD144F0020407EBC403029FDFF8FCE162
:104A20005F60002A40F09F80020442F08802074441
:104A30004EF8342086F800900D703B46402804D193
:104A400000207D4A019910800B607C4A012313707D
:104A5000E3E600F0C7FB41E6704B784872491A6103
:104A60004FF0020E80F800E0754F0A70754919602A
:104A70009960754E754D764C9A610D213970FF2104
:104A80003170DFF8F4E129702270724D724A8EF8AD
:104A900000109F27012406F8047C5D600470DA6032
:104AA00007B0BDE8F08F6D4A47F83800137801333E
:104AB0001370F3E543F82600694DD6E58B5D032BB3
:104AC00067D801A252F823F09D4600009D460000E1
:104AD0001D4B0000174B000059495C4B80220D20F4
:104AE00008701A70A2077FF5D8AECFE640F2023206
:104AF000914240F05681A98801F07F01042916D81F
:104B00006A88A2B94E4C89000C448146217841F054
:104B10000201217059E701238B55BFE500238B5516
:104B2000BCE5A98801F07F01042940F24781444B8C
:104B30000F221A70414A012313706EE640287FF657
:104B400068AF44F002040EEBC401029E4E60AAB1AD
:104B5000444A83F800903346403888F80050403388
:104B60004EF834206DE70204029B86F8009042F074
:104B7000C8020D7003444EF834205FE783F80090BC
:104B8000029B304A88F80050403840334EF83420B9
:104B900057E719F0080F0CBF022303238B557DE55F
:104BA000314A0F211170EAE6304A5468002CBED019
:104BB0006888B5F804E003E00C325468002CB6D0E5
:104BC00013888342F8D153887345F5D1000A03282E
:104BD0000CBF2078108903E0254C022022706270FF
:104BE000EA88824280F00C810F490D78402A45F016
:104BF000020E944607EBCE0028BF4FF0400C04EBAA
:104C00000C0344600293CCEB02004FEA0C484FF0D7
:104C100001090022C824E9E6BCC3FF1F0080FF1F72
:104C200017C6FF1F18C6FF1FB0C3FF1F44C3FF1FD7
:104C300020C6FF1FD4C3FF1FF0C2FF1F94200740F0
:104C4000C02007408800400088200740802007409F
:104C500098200740F4C2FF1F48C3FF1FB1C3FF1FC6
:104C6000E0C2FF1FC800400045C3FF1FA8A000000E
:104C7000B4C3FF1FD8C2FF1F8C200740684A694C8D
:104C800012782270ACE76849684B694A0291694919
:104C9000694C6A4D039405964FF0000988461C46FE
:104CA00016460495206828B1456800F053F9284657
:104CB000002DF9D100232360049B30681A4600239D
:104CC00042F8293028B1456800F044F92846002D03
:104CD000F9D100223260029A98F800301146002281
:104CE00041F8042B039A0291023B4FF0000122F895
:104CF0001910032B07D8DFE803F0340234024FF019
:104D0000010388F8003009F10109B9F1040F04F139
:104D1000040406F1040608F10108C3D1484B059EBE
:104D2000DFF83091DFF8308100211970012518F883
:104D3000013B09F8043B1A0718D4AC0044F0020206
:104D400044F00304002347F8323047F834303D4B39
:104D5000994505F10105EAD196F8009089F0010224
:104D600033E64FF0000388F80030CCE700F0D2F8CB
:104D7000AC0007EB451300F10802002837D05A6059
:104D8000314B47F8343000F0C5F844F0010307EB2D
:104D9000C30200F1080100B351602C4A47F83320E8
:104DA000CCE7B1F5A06F7FF4C2AE00224FF001094D
:104DB0000BE642F221329142F7D0B8E66A88002A27
:104DC0007FF4B5AE224C89000C448146217821F055
:104DD00002012170F9E5022002E7194B44F00102BB
:104DE0001B7847F83200164A01331370A6E7144BBC
:104DF000134A1B78AC00013347F834001370C2E744
:104E00004028844628BF4FF0400C04EB0C03CCEB49
:104E100000004FEA0C48029300224FF00109D9E547
:104E2000BCC3FF1FB4C3FF1F98C3FF1F34C3FF1FC2
:104E300088C3FF1FC0C3FF1F10C6FF1FE0C2FF1FB4
:104E4000B1C3FF1FD420074088004000C8004000C5
:104E5000C0200740C4200740A4A000002DE9F8436B
:104E6000204C01F075FF002204F1880023461A60EF
:104E70005A60083383424FF00001F8D11A4A1B4FA1
:104E800013681B4D1B481C4EDFF87880DFF878C094
:104E9000DFF87890DFF878E043F480231360C4F300
:104EA00007233B70C4F307432B70240EFF2302F546
:104EB00028320470114D88F8003011488CF8003009
:104EC000D4323370012389F8003070268EF8001038
:104ED0004FF40074102107F8183C2E700460117014
:104EE000BDE8F8830080FF1F348004409C20074009
:104EF000B0200740B42007401020074049E400E0FC
:104F000008E100E080200740882007409420074007
:104F10000021074072B60D480268B2FA82F30B2BEB
:104F200010DC4FF00041D94022EA0102026062B673
:104F3000074803EBC303DB00C2180021C150104631
:104F40005160704762B60020704700BF04B3FF1F76
:104F5000BCABFF1F0D4B0E4AC31AA2FB03231B0958
:104F60000B2B0CD80B4A127852B972B60A484FF084
:104F70000041026821FA03F31A43026062B67047E7
:104F8000064A1278002AF0D0FFF7BABABCABFF1F6E
:104F9000398EE338B1C3FF1F04B3FF1FBCC3FF1F2B
:104FA00038B50F4D286878B143880288C11801339D
:104FB00093420C7A02D24380204638BDFFF7CAFFE5
:104FC000002320462B6038BD064B1B782BB10320F5
:104FD000FFF762FA28600028E6D14FF0FF3038BDB5
:104FE000D0C3FF1FBCC3FF1F10B5094C206818B108
:104FF00043881844007A10BD064B1B782BB1032060
:10500000FFF74AFA20600028F2D14FF0FF3010BDC0
:10501000D0C3FF1FBCC3FF1F044B054A1B68908809
:105020001BB11A885B88D31A18447047D0C3FF1F7E
:1050300010C6FF1F0B4B1B789BB110B50A4C2068A4
:1050400048B1FFF787FF002303202360FFF724FA0E
:1050500030B1FFF77FFF0320FFF71EFA0028F8D1D9
:1050600010BD7047BCC3FF1FD0C3FF1F2DE9F04F19
:10507000DFF8F89083B0012289F80020019169B32C
:10508000DFF8EC80364F019E8346D8F80000B0B3BD
:10509000344D4488C4F14001B14228BF314604EB8D
:1050A000010E00221FFA8EFE2A70761AA0F802E086
:1050B00000F1080251B1013C224459441BF8014B54
:1050C00002F8014F8B45F9D1B0F802E0BEF13F0F75
:1050D0000BD8254A05211170002ED6D10198002346
:1050E00089F8003003B0BDE8F08F4022028001460D
:1050F0000420FFF747FA0022C8F80020E9E73A78D1
:105100002AB3184D4AF2F9244FF0010A07E0013C96
:1051100016D02A78A2B900F0DFFB3A78BAB10420A1
:10512000FFF7D8F90728F2D889F800A0FFF7F2FEB8
:10513000C8F800000028ACD10C4B013C1870E8D135
:1051400001234FF0FF302B7003B0BDE8F08F002338
:105150004FF0FF3089F8003003B0BDE8F08F00BF9A
:10516000BCC3FF1FCCC3FF1FC4C3FF1FC5C3FF1FAA
:10517000C8C3FF1F00B583B002AB012103F8010DC6
:105180001846FFF773FF03B05DF804FBF8B5114B49
:105190001B788BB1104E114D346801272F7064B10C
:1051A0000F4A638800271770214623800420FFF7E9
:1051B000E9F9376000232B70F8BDFFF7ABFE084B11
:1051C00028B1014604201C70FFF7DCF9F2E71F70DC
:1051D000F0E700BFBCC3FF1FC8C3FF1FC5C3FF1F4D
:1051E000C4C3FF1F38B50E4B1B7873B90D4C216833
:1051F00061B103F0FF054B880B800420FFF7C2F973
:10520000256038BD084B01221A7038BDFFF782FEB9
:105210000028F7D00146BDE838400420FFF7B2B9B6
:10522000C5C3FF1FC8C3FF1FC4C3FF1FC029F0B4FD
:1052300028BFC02172B6114B114E18600023336095
:105240007360B360F36033617361012799B15D09E5
:1052500003F01F0456F8252007FA04F40133224313
:105260008B4246F82520F2D10023437001338B4254
:1052700000F58270F9D162B6F0BC7047E0C3FF1F41
:10528000E8C3FF1F70B472B6204B196821B9596882
:1052900021B30433202200E000221D4E3478B1FAFD
:1052A00081F54FF00040E8400134E4B221EA00000B
:1052B0003470186062B6531B03EB83139A00154BCE
:1052C0001549186802F5FB531C330122C2540A78B1
:1052D000A242184438BF0C7070BC7047996821B95D
:1052E000D96829B10C336022D7E708334022D4E7CC
:1052F000196921B9596929B11433A022CDE71033B6
:105300008022CAE762B60846E6E700BFE8C3FF1F8F
:10531000E5C3FF1FE0C3FF1FDCC3FF1F427872B667
:105320000378012B03D9013B037062B6704770B458
:1053300056110A4D0A4C55F826102378D2434FF0E7
:10534000004002F01F0220FA02F21143013B45F82F
:105350002610237062B670BC704700BFE8C3FF1F01
:10536000E5C3FF1FC368B3B130B401E0DB688BB1A4
:10537000187A9042FAD158685C7A006950F8245043
:10538000002DF3D140F82410087801300870DB6854
:10539000002BEDD130BC7047437A8B4206D90369AC
:1053A000002253F8210043F8212070470020704765
:1053B0004368427A5B7A9A420ED872B60168CA682C
:1053C0000AB90AE01A46D368002BFBD1D0604268C4
:1053D00001230B72137262B67047C860F7E700BF13
:1053E000084B1A7862B930B407480849D0250570CF
:1053F0004FF0804401220C6010461A7030BC704798
:1054000000207047E4C3FF1F5EE400E008E100E015
:105410001A491B4A1B48F8B50B681B4D046843F03A
:1054200080730B60136843F0010313602E6814B996
:1054300015E064699CB1237A002BFAD023682F68A9
:105440001B68204698472B68E188DB1B1B099AB232
:105450008B42A28088BFE2806469002CEBD10A4BAA
:105460000A4A1B6810880A4C9B1B1B0999B283428D
:10547000218001D91180F8BDF8BD00BFFCED00E02E
:10548000001000E0D8C3FF1F041000E0E6C3FF1FB8
:1054900000C4FF1FF0B572B699B902688AB10379EA
:1054A0000F2B0ED8274C218841FA03F5ED070AD5BA
:1054B00003F1007303F59063B2EB431F03D162B6AF
:1054C000F0BD204C2188002341FA03F212F00102C2
:1054D00007D00133102BF7D162B6002203710260AE
:1054E000F0BD01259D402943218062B6164E174D1F
:1054F000174FDFF864E0D9B20171346844F0020458
:1055000034602C6844F002042C60A6F580268224C6
:10551000A5F5802503F100733C6003F59063223EFE
:10552000243D0C4C8EF800105B0131702970217005
:1055300003601A605A609A60DA601A615A619A616F
:10554000DA61F0BD02C4FF1F408004403C8004408B
:10555000008000401F8000401A80004003790F2B1C
:1055600011D8094A10B4137072B6084904790A8830
:105570000123A34022EA03030B8062B6102200231A
:1055800010BC0271036070471A80004002C4FF1F04
:10559000704700BF02685AB130B4064B064C074D45
:1055A00013441B11002144F8235030BC916001606A
:1055B000704700BF008FFCBF08B3FF1F915500006C
:1055C000024A034B012111601B6818470C7103400C
:1055D00008B3FF1F024A034B012111605B681847A3
:1055E0001C71034008B3FF1F024A034B01211160E5
:1055F0009B6818472C71034008B3FF1F024A034BF6
:1056000001211160DB6818473C71034008B3FF1F9C
:10561000F8B572B106460F4614460025336817F8F0
:10562000011B1B6830469847013C0544F6D12846CB
:10563000F8BD1546FBE700BFF0B507468BB0002A62
:1056400033D0012A08BF0A2251B3212400E0F4B26A
:10565000B1FBF2F502FB1511C8B2092900F13001C6
:1056600098BFC8B20AA988BF3730214488BFC0B2EA
:1056700001F8240C661E2946002DE8D133B1013C07
:10568000E4B20AAB23442D2203F8242C3B6801AA80
:1056900011195B683846C4F1220298470BB0F0BD7F
:1056A00030228DF825202124E8E70368C9B21B6861
:1056B00098470BB0F0BD00BF0029BABF49422D2367
:1056C00000230A22FFF7B8BF2DE9F04385B08046DA
:1056D0001946104616461F469DF8305002F0B8F99C
:1056E000002840F0B18027F00044304621464FF0BA
:1056F000FF32594B02F0ACF998B9304621464FF0D1
:10570000FF32554B02F086F958B9D8F800305349AA
:105710005B684046032298478146484605B0BDE88D
:10572000F083304639464FF060424D4B02F086F927
:10573000002870D1304639464FF06042494B02F0A4
:105740005FF9002867D1304639460022002302F075
:1057500057F9002863D18146002D65D0424B0024C3
:105760000022104619463AA3D3E9002301F0D6FEE1
:1057700001340B46E1B28D420246F2D8304639463A
:1057800001F01AFD0F46064602F078F9044601F0D2
:105790004FFE02460B463046394601F00BFD4B46A4
:1057A00006460F460A2221464046FFF745FF0F2DC9
:1057B00028BF0F2501352E238146EDB28DF800302C
:1057C00001240022294B3046394601F0A7FE0F463E
:1057D000064602F053F904AB2344C0B200F1300294
:1057E00003F8102C01F034FE02460B4630463946D1
:1057F00001F0E0FC0134E4B2A54206460F46E0D1D8
:10580000D8F800302A465B684046694698474846C3
:1058100005B0BDE8F083D8F80030154978E707F106
:1058200000474FF0010997E700220F4B30463946F9
:1058300001F0C2FC02F022F94B4601460A22404622
:10584000FFF7FAFE814668E7D8F8003009495FE7BC
:10585000000000A09999B93FFFFFEF7F7CA00000F6
:10586000FFFFEF41FFFFEFC10000E03F00002440D9
:1058700078A0000074A0000008B5FAF7FFFFFBF75E
:1058800087FA00F029F8FAE702F06CBC02F06ABC73
:1058900002F070BCFFF7CEBBFFF778BCFFF7A4BBEC
:1058A000FFF77EBBFFF7B8BB08461146FFF7DEBB2C
:1058B0000846FFF75FBC00BF704700BF044B054AB6
:1058C0001A604FF47A71002299601A711A73704746
:1058D00008C4FF1F88A0000010B5154C237803B141
:1058E00010BD01232370FFF797FB58B900F0E8FAC9
:1058F00070B900F087FE88B901F050F9A0B9002313
:10590000237010BDFFF7D8FF00F0DAFA0028F0D0BE
:1059100001F0D4FA00F076FE0028EDD001F082FB11
:1059200001F03CF90028EAD001F030FCE7E700BFC5
:1059300018C4FF1FF0B44D1E2E46002400E00134B1
:10594000B0FBF2F302FB1300092800F130078ABF15
:105950003730F8B2C0B206F8010F1846002BEED16E
:105960000A1953704CB1107815F8016F2870013383
:10597000E01A834202F80169F5DB0846F0BC704783
:105980002DE9F84F214B1B6807460BB101221A7015
:10599000DFF888901E4D99F80040DFF884801D4E96
:1059A00001343F2C8ABF4FF0000A5FFA84FA544654
:1059B000AB462B78A34216D1FEF732FB40281FDC02
:1059C00033791B06F5D59BF8003001333F2B86BF9A
:1059D00000221346DAB218F80330DBB2F3712A70F2
:1059E0002B78A342E8D00C490A4BFFB208F80470A8
:1059F0000120BC22087089F800A0DA70BDE8F88F99
:105A0000FF28D6DDFFF768FFD3E700BFACC4FF1F58
:105A1000A9C4FF1F00A00640A8C4FF1FB0C4FF1FF9
:105A200024C4FF1F274A28491368F0B543F4806354
:105A300013600A78254F264E264D274C2749002310
:105A40003B7033702B7023700B70002A35D0152AF1
:105A500026D0234B1B78012B2AD0052B03D1214BB9
:105A60004FF451721A60204B204C2149C0F3443648
:105A7000C0F347151E7000F01F005D7004224FF048
:105A8000020E88273C26402598729A704FF40050E9
:105A900083F813E05A751F74DE7025700860F0BD3E
:105AA000144B40F213321A600D4B1B78012BD4D1EA
:105AB000114B4FF451721A60D5E7104B40F213327C
:105AC0001A60C6E73480044064C4FF1F20C4FF1F6F
:105AD00021C4FF1FB0C4FF1FA9C4FF1FA8C4FF1F1C
